{
  "contractName": "Bank",
  "abi": [
    {
      "constant": true,
      "inputs": [],
      "name": "show_registers",
      "outputs": [
        {
          "name": "",
          "type": "uint256"
        }
      ],
      "payable": false,
      "stateMutability": "view",
      "type": "function"
    },
    {
      "constant": true,
      "inputs": [
        {
          "name": "",
          "type": "address"
        }
      ],
      "name": "bank_d1",
      "outputs": [
        {
          "name": "name",
          "type": "string"
        },
        {
          "name": "bal",
          "type": "uint256"
        },
        {
          "name": "time",
          "type": "uint256"
        },
        {
          "name": "loan_interst",
          "type": "uint256"
        },
        {
          "name": "fixed_deposit_interst",
          "type": "uint256"
        },
        {
          "name": "account_deposit_interst",
          "type": "uint256"
        }
      ],
      "payable": false,
      "stateMutability": "view",
      "type": "function"
    },
    {
      "constant": true,
      "inputs": [
        {
          "name": "",
          "type": "uint256"
        }
      ],
      "name": "reg_user",
      "outputs": [
        {
          "name": "",
          "type": "address"
        }
      ],
      "payable": false,
      "stateMutability": "view",
      "type": "function"
    },
    {
      "constant": false,
      "inputs": [
        {
          "name": "name",
          "type": "string"
        },
        {
          "name": "_loan_interst",
          "type": "uint256"
        },
        {
          "name": "_fixed_deposit",
          "type": "uint256"
        },
        {
          "name": "_acc_dep_int",
          "type": "uint256"
        }
      ],
      "name": "register",
      "outputs": [
        {
          "name": "",
          "type": "string"
        }
      ],
      "payable": false,
      "stateMutability": "nonpayable",
      "type": "function"
    },
    {
      "constant": true,
      "inputs": [
        {
          "name": "index",
          "type": "uint256"
        },
        {
          "name": "intr_type",
          "type": "uint256"
        }
      ],
      "name": "show_bank_detail",
      "outputs": [
        {
          "name": "bank_name",
          "type": "string"
        },
        {
          "name": "tem_add",
          "type": "address"
        },
        {
          "name": "intr",
          "type": "uint256"
        }
      ],
      "payable": false,
      "stateMutability": "view",
      "type": "function"
    },
    {
      "constant": false,
      "inputs": [],
      "name": "deposit",
      "outputs": [],
      "payable": true,
      "stateMutability": "payable",
      "type": "function"
    },
    {
      "constant": false,
      "inputs": [
        {
          "name": "amount",
          "type": "uint256"
        }
      ],
      "name": "withdraw",
      "outputs": [],
      "payable": false,
      "stateMutability": "nonpayable",
      "type": "function"
    },
    {
      "constant": false,
      "inputs": [
        {
          "name": "to",
          "type": "address"
        },
        {
          "name": "amount",
          "type": "uint256"
        }
      ],
      "name": "transfer",
      "outputs": [],
      "payable": true,
      "stateMutability": "payable",
      "type": "function"
    },
    {
      "constant": true,
      "inputs": [],
      "name": "GetBalance",
      "outputs": [
        {
          "name": "",
          "type": "uint256"
        }
      ],
      "payable": false,
      "stateMutability": "view",
      "type": "function"
    }
  ],
  "bytecode": "0x6060604052341561000f57600080fd5b610e858061001e6000396000f300606060405260043610610099576000357c0100000000000000000000000000000000000000000000000000000000900463ffffffff1680632e1a7d4d1461009e5780633b6afaa5146100c15780633e9d0e39146100ea5780637b30ccd5146101dc578063a16c1f151461023f578063a9059cbb14610330578063d0e30db014610367578063de014f9514610371578063f8f8a91214610450575b600080fd5b34156100a957600080fd5b6100bf6004808035906020019091905050610479565b005b34156100cc57600080fd5b6100d46105ab565b6040518082815260200191505060405180910390f35b34156100f557600080fd5b610121600480803573ffffffffffffffffffffffffffffffffffffffff169060200190919050506105b8565b60405180806020018781526020018681526020018581526020018481526020018381526020018281038252888181546001816001161561010002031660029004815260200191508054600181600116156101000203166002900480156101c85780601f1061019d576101008083540402835291602001916101c8565b820191906000526020600020905b8154815290600101906020018083116101ab57829003601f168201915b505097505050505050505060405180910390f35b34156101e757600080fd5b6101fd60048080359060200190919050506105f3565b604051808273ffffffffffffffffffffffffffffffffffffffff1673ffffffffffffffffffffffffffffffffffffffff16815260200191505060405180910390f35b341561024a57600080fd5b6102b5600480803590602001908201803590602001908080601f01602080910402602001604051908101604052809392919081815260200183838082843782019150505050505091908035906020019091908035906020019091908035906020019091905050610632565b6040518080602001828103825283818151815260200191508051906020019080838360005b838110156102f55780820151818401526020810190506102da565b50505050905090810190601f1680156103225780820380516001836020036101000a031916815260200191505b509250505060405180910390f35b610365600480803573ffffffffffffffffffffffffffffffffffffffff169060200190919080359060200190919050506108d3565b005b61036f610a15565b005b341561037c57600080fd5b61039b6004808035906020019091908035906020019091905050610ac6565b60405180806020018473ffffffffffffffffffffffffffffffffffffffff1673ffffffffffffffffffffffffffffffffffffffff168152602001838152602001828103825285818151815260200191508051906020019080838360005b838110156104135780820151818401526020810190506103f8565b50505050905090810190601f1680156104405780820380516001836020036101000a031916815260200191505b5094505050505060405180910390f35b341561045b57600080fd5b610463610cdb565b6040518082815260200191505060405180910390f35b60008060003373ffffffffffffffffffffffffffffffffffffffff1673ffffffffffffffffffffffffffffffffffffffff16815260200190815260200160002060020154141515156104ca57600080fd5b806000803373ffffffffffffffffffffffffffffffffffffffff1673ffffffffffffffffffffffffffffffffffffffff1681526020019081526020016000206001015411151561051957600080fd5b806000803373ffffffffffffffffffffffffffffffffffffffff1673ffffffffffffffffffffffffffffffffffffffff168152602001908152602001600020600101600082825403925050819055503373ffffffffffffffffffffffffffffffffffffffff166108fc829081150290604051600060405180830381858888f1935050505015156105a857600080fd5b50565b6000600180549050905090565b600060205280600052604060002060009150905080600001908060010154908060020154908060030154908060040154908060050154905086565b60018181548110151561060257fe5b90600052602060002090016000915054906101000a900473ffffffffffffffffffffffffffffffffffffffff1681565b61063a610d74565b60008060003373ffffffffffffffffffffffffffffffffffffffff1673ffffffffffffffffffffffffffffffffffffffff16815260200190815260200160002060020154141561089257846000803373ffffffffffffffffffffffffffffffffffffffff1673ffffffffffffffffffffffffffffffffffffffff16815260200190815260200160002060000190805190602001906106d9929190610d88565b50836000803373ffffffffffffffffffffffffffffffffffffffff1673ffffffffffffffffffffffffffffffffffffffff16815260200190815260200160002060030181905550826000803373ffffffffffffffffffffffffffffffffffffffff1673ffffffffffffffffffffffffffffffffffffffff16815260200190815260200160002060040181905550816000803373ffffffffffffffffffffffffffffffffffffffff1673ffffffffffffffffffffffffffffffffffffffff16815260200190815260200160002060050181905550426000803373ffffffffffffffffffffffffffffffffffffffff1673ffffffffffffffffffffffffffffffffffffffff16815260200190815260200160002060020181905550600180548060010182816108069190610e08565b9160005260206000209001600033909190916101000a81548173ffffffffffffffffffffffffffffffffffffffff021916908373ffffffffffffffffffffffffffffffffffffffff160217905550506040805190810160405280601781526020017f5375636365737366756c6c79205265676973746572656400000000000000000081525090506108cb565b6040805190810160405280601481526020017f4163636f756e7420416c7265617920457869737400000000000000000000000081525090505b949350505050565b60008060003373ffffffffffffffffffffffffffffffffffffffff1673ffffffffffffffffffffffffffffffffffffffff168152602001908152602001600020600201541415151561092457600080fd5b806000803373ffffffffffffffffffffffffffffffffffffffff1673ffffffffffffffffffffffffffffffffffffffff1681526020019081526020016000206001015411151561097357600080fd5b806000808473ffffffffffffffffffffffffffffffffffffffff1673ffffffffffffffffffffffffffffffffffffffff16815260200190815260200160002060010160008282540192505081905550806000803373ffffffffffffffffffffffffffffffffffffffff1673ffffffffffffffffffffffffffffffffffffffff168152602001908152602001600020600101600082825403925050819055505050565b60008060003373ffffffffffffffffffffffffffffffffffffffff1673ffffffffffffffffffffffffffffffffffffffff1681526020019081526020016000206002015414151515610a6657600080fd5b600034111515610a7557600080fd5b346000803373ffffffffffffffffffffffffffffffffffffffff1673ffffffffffffffffffffffffffffffffffffffff16815260200190815260200160002060010160008282540192505081905550565b610ace610d74565b600080600185815481101515610ae057fe5b906000526020600020900160009054906101000a900473ffffffffffffffffffffffffffffffffffffffff1691506000808373ffffffffffffffffffffffffffffffffffffffff1673ffffffffffffffffffffffffffffffffffffffff1681526020019081526020016000206000018054600181600116156101000203166002900480601f016020809104026020016040519081016040528092919081815260200182805460018160011615610100020316600290048015610be35780601f10610bb857610100808354040283529160200191610be3565b820191906000526020600020905b815481529060010190602001808311610bc657829003601f168201915b505050505092506000841415610c38576000808373ffffffffffffffffffffffffffffffffffffffff1673ffffffffffffffffffffffffffffffffffffffff1681526020019081526020016000206003015490505b6001841415610c86576000808373ffffffffffffffffffffffffffffffffffffffff1673ffffffffffffffffffffffffffffffffffffffff1681526020019081526020016000206004015490505b6002841415610cd4576000808373ffffffffffffffffffffffffffffffffffffffff1673ffffffffffffffffffffffffffffffffffffffff1681526020019081526020016000206005015490505b9250925092565b6000806000803373ffffffffffffffffffffffffffffffffffffffff1673ffffffffffffffffffffffffffffffffffffffff1681526020019081526020016000206002015414151515610d2d57600080fd5b6000803373ffffffffffffffffffffffffffffffffffffffff1673ffffffffffffffffffffffffffffffffffffffff16815260200190815260200160002060010154905090565b602060405190810160405280600081525090565b828054600181600116156101000203166002900490600052602060002090601f016020900481019282601f10610dc957805160ff1916838001178555610df7565b82800160010185558215610df7579182015b82811115610df6578251825591602001919060010190610ddb565b5b509050610e049190610e34565b5090565b815481835581811511610e2f57818360005260206000209182019101610e2e9190610e34565b5b505050565b610e5691905b80821115610e52576000816000905550600101610e3a565b5090565b905600a165627a7a72305820118e0c8a4b8dfae3e424a3a228cfe1abac699c137b0bdec88609f281348091af0029",
  "source": "pragma solidity ^0.4.18;\r\nimport \"./Register.sol\";\r\n\r\ncontract Bank is Register\r\n{\r\n    modifier ch_register()\r\n    {\r\n        require(bank_d1[msg.sender].time!=0);\r\n        _;\r\n    }\r\n   \r\n    function deposit()  public payable ch_register\r\n    {\r\n        require(msg.value>0);\r\n        bank_d1[msg.sender].bal+=msg.value;\r\n    }\r\n   \r\n    function withdraw(uint256 amount) ch_register public\r\n    {\r\n        require(bank_d1[msg.sender].bal>amount);\r\n        bank_d1[msg.sender].bal-=amount;\r\n        msg.sender.transfer(amount);\r\n    }\r\n   \r\n    function transfer(address to,uint256 amount) ch_register public payable\r\n    {  \r\n        require(bank_d1[msg.sender].bal>amount);\r\n        bank_d1[to].bal+=amount;\r\n        bank_d1[msg.sender].bal-=amount;\r\n        //to.transfer(amount);\r\n    }\r\n    \r\n    function GetBalance() ch_register public constant returns (uint256)\r\n    {\r\n        return bank_d1[msg.sender].bal;\r\n    }\r\n}",
  "sourcePath": "D:\\truffle\\eight\\contracts\\Bank.sol",
  "compiler": {
    "name": "solc",
    "version": "0.4.19+commit.c4cbbb05.Emscripten.clang"
  },
  "schemaVersion": "2.0.0",
  "updatedAt": "2018-04-01T05:40:17.610Z"
}